:100000000C942A000C943F000C943F000C943F0089
:100010000C943F000C943F000C943F000C943F0064
:100020000C943F000C943F000C943F000C943F0054
:100030000C943F000C943F000C943F000C943F0044
:100040000C943F000C943F000C943F000C943F0034
:100050000C943F0011241FBECFE5D8E0DEBFCDBF1A
:1000600010E0A0E6B0E0ECE9F8E002C005900D92E7
:10007000A037B107D9F70E9441000C944C040C94AE
:1000800000006F927F929F92AF92BF92CF92DF92C9
:10009000EF92FF920F931F93DF93CF93CDB7DEB70D
:1000A0002A970FB6F894DEBF0FBECDBF0E9438036B
:1000B0008CE00E94F90280E00E94B50300E0CC24AD
:1000C000DD24EE24FF24AA24BB243E010894611CF5
:1000D000711C1BC080E00E946B03182F0E942C0231
:1000E000133659F481E00E94F90200E0CC24DD24AB
:1000F000EE24FF24AA24BB2408C0E02FF0E01D3327
:1001000051F0E60DF71D10830F5F80E00E946B0336
:100110008F3F01F7FACFE60DF71D108200E020E0D7
:100120002CC08E2F80538A3018F09E2E21E024C0E0
:10013000F0E0222389F4C60163E0880F991F6A95D5
:10014000E1F7CC0CDD1CC80ED91E80ED9FEFC80E68
:10015000D91ECE0EDF1E10C0C70143E0880F991FC5
:100160004A95E1F7EE0CFF1CE80EF91E80ED9FEFBB
:10017000E80EF91EEE0EFF1E0F5FF301E00FF11DFA
:10018000E081EE2371F69BE2991669F0991520F053
:100190008AE29816E9F40FC09DE2991641F08FE2C9
:1001A0009816B1F410C05601AE0CBF1C11C0560118
:1001B000AE18BF080DC0CE9C5001CF9CB00CDE9C89
:1001C000B00C112405C0C601B7010E9403045B01F5
:1001D000B501882777FD8095982F0E946B0295CFF7
:1001E000813031F1813038F0823009F43EC0833003
:1001F00009F072C056C0442321F0413009F06CC0B0
:100200000CC02AB381E090E002C0880F991F6A9564
:10021000E2F7809582238ABB08952AB381E090E0BB
:1002200002C0880F991F6A95E2F7282B2ABB089510
:10023000442321F0413009F04FC00CC027B381E0C6
:1002400090E002C0880F991F6A95E2F7809582239B
:1002500087BB089527B381E090E002C0880F991F03
:100260006A95E2F7282B27BB0895442319F0413003
:1002700099F50CC024B381E090E002C0880F991F6B
:100280006A95E2F78095822384BB089524B381E0C8
:1002900090E002C0880F991F6A95E2F7282B24BBD3
:1002A0000895442319F04130B9F40CC021B381E022
:1002B00090E002C0880F991F6A95E2F7809582232B
:1002C00081BB089521B381E090E002C0880F991F9F
:1002D0006A95E2F7282B21BB0895813049F08130DF
:1002E00028F0823039F0833041F406C06ABB0895AB
:1002F00067BB089564BB089561BB0895813031F1F7
:10030000813038F0823009F43EC0833009F072C089
:1003100056C0442321F0413009F06CC00CC02BB30F
:1003200081E090E002C0880F991F6A95E2F78095FE
:1003300082238BBB08952BB381E090E002C0880F2D
:10034000991F6A95E2F7282B2BBB0895442321F0CF
:10035000413009F04FC00CC028B381E090E002C0EA
:10036000880F991F6A95E2F78095822388BB0895CC
:1003700028B381E090E002C0880F991F6A95E2F7E8
:10038000282B28BB0895442319F0413099F50CC05F
:1003900025B381E090E002C0880F991F6A95E2F7CB
:1003A0008095822385BB089525B381E090E002C04B
:1003B000880F991F6A95E2F7282B25BB08954423DF
:1003C00019F04130B9F40CC022B381E090E002C0D2
:1003D000880F991F6A95E2F78095822382BB089562
:1003E00022B381E090E002C0880F991F6A95E2F77E
:1003F000282B22BB0895813049F0813028F08230CB
:1004000039F0833041F406C06BBB089568BB089592
:1004100065BB089562BB0895813051F0813030F0A2
:10042000823041F0833079F080E0089589B303C0D1
:1004300086B301C083B390E002C0959587956A9515
:10044000E2F78170089580B390E002C0959587959A
:100450006A95E2F781700895FF920F931F93F82E2B
:1004600082E060E041E00E947E0182E061E040E0E5
:100470000E947E0183E06F2D0E94FB0182E062E01A
:1004800041E00E947E0100EA1FE0C8010197F1F7F8
:1004900082E062E040E00E947E01C8010197F1F72E
:1004A000F29480EFF82283E06F2D0E94FB0182E03E
:1004B00062E041E00E947E01C8010197F1F782E00D
:1004C00062E040E00E947E01C8010197F1F71F91B0
:1004D0000F91FF9008954F925F926F927F928F924B
:1004E0009F92AF92BF92CF92DF92EF92FF920F93C3
:1004F0001F93CF93DF937B018C01611571058105FB
:10050000910521F480E30E942C0262C097FF0BC08A
:100510008DE20E942C0210950095F094E094E11C6D
:10052000F11C011D111DC801B701DD240BC0D394BE
:100530002AE030E040E050E00E941604C901DA01F0
:10054000BC01CD01611571058105910581F78D2CE7
:100550008A9466247724482C552447FC50942BC059
:10056000C601B5012AE030E040E050E00E94E4031B
:100570005B016C019394892D90E0C817D90784F72B
:10058000B701C801A60195010E941604822F805D63
:100590000E942C020894611C711C8820C9F0B701CC
:1005A000C801A60195010E941604AC01CB01DA0135
:1005B0007C018D018A9487FC0BC09924939491E06F
:1005C000A92EB12CC12CD12CE201C619D709D3CF49
:1005D000DF91CF911F910F91FF90EF90DF90CF901F
:1005E000BF90AF909F908F907F906F905F904F9053
:1005F0000895FF920F931F93F82E82E060E040E091
:100600000E947E0182E061E040E00E947E0183E082
:100610006F2D0E94FB0182E062E041E00E947E01BA
:1006200000EA1FE0C8010197F1F782E062E040E0D4
:100630000E947E01C8010197F1F7F29420EFF222A7
:1006400083E06F2D0E94FB0182E062E041E00E94A6
:100650007E01C8010197F1F782E062E040E00E946C
:100660007E01C8010197F1F71F910F91FF90089546
:100670001F9383E06FEF0E946D0182E060E041E034
:100680000E94F00082E061E041E00E94F00082E020
:1006900062E041E00E94F00080E09AEF0197F1F7FC
:1006A00082E00E94F9028CE20E94F90210E7812F99
:1006B0008A95F1F78FE00E94F9021A95F1F781E02F
:1006C0000E94F90280EA9FE00197F1F786E00E941C
:1006D000F9021F910895AF92BF92CF92DF92EF92ED
:1006E000FF920F931F93CF93DF93E82EDD24DA94CC
:1006F00000E010E028ECA22EB12CC02E8E2D602F31
:1007000040E00E947E01E801CC0FDD1FCC0FDD1F11
:10071000C05ADF4F84E0F82E8E2D6F2D0E940C0200
:10072000882341F4D88088EE93E0F5013197F1F702
:100730000197D9F7F394219688E0F81669F78E2D82
:100740006C2D41E00E947E010F5F1F4F04301105A8
:10075000A1F68D2DDF91CF911F910F91FF90EF901A
:10076000DF90CF90BF90AF9008951F93182F60E057
:1007700041E00E94F000812F61E041E00E94F00022
:10078000812F62E041E00E94F000812F63E041E0B0
:100790000E94F000812F64E040E00E94F000812F71
:1007A00065E040E00E94F000812F66E040E00E949A
:1007B000F000812F67E040E00E94F000812F6FEF92
:1007C0000E94FB011F910895629FD001739FF00169
:1007D000829FE00DF11D649FE00DF11D929FF00DD1
:1007E000839FF00D749FF00D659FF00D9927729F08
:1007F000B00DE11DF91F639FB00DE11DF91FBD0193
:10080000CF011124089597FB092E07260AD077FD02
:1008100004D02ED006D000201AF4709561957F4F39
:100820000895F6F7909581959F4F0895A1E21A2EAD
:10083000AA1BBB1BFD010DC0AA1FBB1FEE1FFF1F84
:10084000A217B307E407F50720F0A21BB30BE40BD4
:10085000F50B661F771F881F991F1A9469F760951B
:100860007095809590959B01AC01BD01CF010895D5
:10087000AA1BBB1B51E107C0AA1FBB1FA617B707C6
:1008800010F0A61BB70B881F991F5A95A9F78095E2
:0C0890009095BC01CD010895F894FFCFB5
:10089C003738392F3435362A3132332D63303D2BEE
:00000001FF
